{
  "contractName": "MultiEscrow",
  "abi": [
    {
      "constant": true,
      "inputs": [
        {
          "name": "",
          "type": "uint256"
        }
      ],
      "name": "transactions",
      "outputs": [
        {
          "name": "buyer",
          "type": "address"
        },
        {
          "name": "seller",
          "type": "address"
        },
        {
          "name": "price",
          "type": "uint256"
        },
        {
          "name": "balance",
          "type": "uint256"
        },
        {
          "name": "time_out",
          "type": "uint256"
        },
        {
          "name": "active",
          "type": "string"
        },
        {
          "name": "paid",
          "type": "string"
        }
      ],
      "payable": false,
      "stateMutability": "view",
      "type": "function"
    },
    {
      "anonymous": false,
      "inputs": [
        {
          "indexed": false,
          "name": "transaction_id",
          "type": "uint256"
        }
      ],
      "name": "new_transaction",
      "type": "event"
    },
    {
      "constant": false,
      "inputs": [
        {
          "name": "_price",
          "type": "uint256"
        },
        {
          "name": "_buyer",
          "type": "address"
        }
      ],
      "name": "init_transaction",
      "outputs": [],
      "payable": true,
      "stateMutability": "payable",
      "type": "function"
    },
    {
      "constant": false,
      "inputs": [
        {
          "name": "_id",
          "type": "uint256"
        }
      ],
      "name": "pay",
      "outputs": [],
      "payable": true,
      "stateMutability": "payable",
      "type": "function"
    },
    {
      "constant": true,
      "inputs": [
        {
          "name": "_id",
          "type": "uint256"
        }
      ],
      "name": "owed_balance",
      "outputs": [
        {
          "name": "",
          "type": "uint256"
        }
      ],
      "payable": false,
      "stateMutability": "view",
      "type": "function"
    }
  ],
  "bytecode": "0x608060405266038d7ea4c6800060005534801561001b57600080fd5b506109e28061002b6000396000f300608060405260043610610062576000357c0100000000000000000000000000000000000000000000000000000000900463ffffffff1680633195d33d146100675780639ace38c2146100a8578063c290d69114610235578063d77eb45414610255575b600080fd5b34801561007357600080fd5b5061009260048036038101908080359060200190929190505050610295565b6040518082815260200191505060405180910390f35b3480156100b457600080fd5b506100d360048036038101908080359060200190929190505050610339565b604051808873ffffffffffffffffffffffffffffffffffffffff1673ffffffffffffffffffffffffffffffffffffffff1681526020018773ffffffffffffffffffffffffffffffffffffffff1673ffffffffffffffffffffffffffffffffffffffff1681526020018681526020018581526020018481526020018060200180602001838103835285818151815260200191508051906020019080838360005b8381101561018d578082015181840152602081019050610172565b50505050905090810190601f1680156101ba5780820380516001836020036101000a031916815260200191505b50838103825284818151815260200191508051906020019080838360005b838110156101f35780820151818401526020810190506101d8565b50505050905090810190601f1680156102205780820380516001836020036101000a031916815260200191505b50995050505050505050505060405180910390f35b610253600480360381019080803590602001909291905050506104fa565b005b61029360048036038101908080359060200190929190803573ffffffffffffffffffffffffffffffffffffffff169060200190929190505050610659565b005b60006001828154811015156102a657fe5b906000526020600020906007020160000160009054906101000a900473ffffffffffffffffffffffffffffffffffffffff1673ffffffffffffffffffffffffffffffffffffffff163373ffffffffffffffffffffffffffffffffffffffff1614151561031157600080fd5b60018281548110151561032057fe5b9060005260206000209060070201600301549050919050565b60018181548110151561034857fe5b90600052602060002090600702016000915090508060000160009054906101000a900473ffffffffffffffffffffffffffffffffffffffff16908060010160009054906101000a900473ffffffffffffffffffffffffffffffffffffffff1690806002015490806003015490806004015490806005018054600181600116156101000203166002900480601f0160208091040260200160405190810160405280929190818152602001828054600181600116156101000203166002900480156104525780601f1061042757610100808354040283529160200191610452565b820191906000526020600020905b81548152906001019060200180831161043557829003601f168201915b505050505090806006018054600181600116156101000203166002900480601f0160208091040260200160405190810160405280929190818152602001828054600181600116156101000203166002900480156104f05780601f106104c5576101008083540402835291602001916104f0565b820191906000526020600020905b8154815290600101906020018083116104d357829003601f168201915b5050505050905087565b60018181548110151561050957fe5b906000526020600020906007020160000160009054906101000a900473ffffffffffffffffffffffffffffffffffffffff1673ffffffffffffffffffffffffffffffffffffffff163373ffffffffffffffffffffffffffffffffffffffff1614151561057457600080fd5b3460018281548110151561058457fe5b9060005260206000209060070201600301600082825401925050819055506001818154811015156105b157fe5b9060005260206000209060070201600201546001828154811015156105d257fe5b906000526020600020906007020160030154101515610656576040805190810160405280600481526020017f504149440000000000000000000000000000000000000000000000000000000081525060018281548110151561063057fe5b90600052602060002090600702016006019080519060200190610654929190610891565b505b50565b60008054341015151561066b57600080fd5b60018060e0604051908101604052808573ffffffffffffffffffffffffffffffffffffffff1681526020013373ffffffffffffffffffffffffffffffffffffffff168152602001868152602001600054815260200162278d00420181526020016040805190810160405280600481526020017f4f50454e0000000000000000000000000000000000000000000000000000000081525081526020016040805190810160405280600681526020017f554e5041494400000000000000000000000000000000000000000000000000008152508152509080600181540180825580915050906001820390600052602060002090600702016000909192909190915060008201518160000160006101000a81548173ffffffffffffffffffffffffffffffffffffffff021916908373ffffffffffffffffffffffffffffffffffffffff16021790555060208201518160010160006101000a81548173ffffffffffffffffffffffffffffffffffffffff021916908373ffffffffffffffffffffffffffffffffffffffff16021790555060408201518160020155606082015181600301556080820151816004015560a0820151816005019080519060200190610832929190610911565b5060c082015181600601908051906020019061084f929190610911565b5050500390507f9c3b66417b19589c81eab2728a7e33e29e9d3be3589a8ccf2189c16f7974125c816040518082815260200191505060405180910390a1505050565b828054600181600116156101000203166002900490600052602060002090601f016020900481019282601f106108d257805160ff1916838001178555610900565b82800160010185558215610900579182015b828111156108ff5782518255916020019190600101906108e4565b5b50905061090d9190610991565b5090565b828054600181600116156101000203166002900490600052602060002090601f016020900481019282601f1061095257805160ff1916838001178555610980565b82800160010185558215610980579182015b8281111561097f578251825591602001919060010190610964565b5b50905061098d9190610991565b5090565b6109b391905b808211156109af576000816000905550600101610997565b5090565b905600a165627a7a723058201b87bc8f859a497498873833fdee5153ea3a2e8548eb9fe71a0e64dac404171f0029",
  "source": "pragma solidity ^0.4.23;\n\n/*\n@Title: MultiEscrow.\n@dev: An escrow service that can be used for multiple separate actions simultaneously\n@Author: Malcolm MacKay\n*/\n\ncontract MultiEscrow {\n\n    event new_transaction(uint transaction_id);\n\n    uint init_fee = 0.001 ether; //prevents seller from overloading the\n                                //system with transactions\n\n    struct transaction {\n        address buyer;\n        address seller;\n        uint price;\n        uint balance; //possibly make uint 32 to save space?\n        uint time_out;\n        string active; //possibly make bytes32?\n        string paid;   //possibly collapse strings into one single string, \n                        //e.g. NEW-> BUYERPAID -> SELLERPAID-> BOTHPAID-> CLOSED\n    }\n\n    transaction[] public transactions;\n    //@dev\n    // buyer has to know transaction ID- is that a mistake?\n    // I don't think so, that way the buyer has control, they \n    // only have to pay for the transaction they choose\n\n\n    //@dev: seller initiates and sets parameters for transaction. they also have to pay a fee\n    function init_transaction(uint _price, address _buyer) external payable { \n        require(msg.value >= init_fee);\n        uint id = transactions.push(transaction(_buyer, msg.sender, _price, init_fee, (now+30 days), \"OPEN\", \"UNPAID\")) -1;\n        //TO ADD: send message to buyer\n        emit new_transaction(id);\n    }\n    //@dev: buyer sends money into escrow. Once the required amount is in escrow, transaction is marked as paid\n    function pay(uint _id) external payable {\n        require(msg.sender == transactions[_id].buyer);\n        transactions[_id].balance += msg.value;\n        if (transactions[_id].balance >= transactions[_id].price){\n            transactions[_id].paid = \"PAID\";\n        }\n        \n    }\n    function owed_balance(uint _id) external view returns(uint){\n        require(msg.sender == transactions[_id].buyer);\n        return transactions[_id].balance;\n    }\n    /*\n    function claim(uint _id) external{\n        if(now >= transactions[_id].time_out) { //if the transaction has timed out and the buyer wants to reclaim funds\n        //shit someone could call this more than once\n            if(msg.sender == transactions[_id].buyer){\n                \n            }\n            if(msg.sender == transactions[_id].seller){\n\n            }\n            transactions[_id].active = \"CLOSED\"\n        } \n\n\n    }\n    */\n    //function destroySelf onlyOnwer pure?\n    //only let function destroy itself if \n    // all transactions are timed out \n}",
  "sourcePath": "/home/comicsands/truf/contracts/MultiEscrow.sol",
  "compiler": {
    "name": "solc",
    "version": "0.4.24+commit.e67f0147.Emscripten.clang"
  },
  "schemaVersion": "2.0.0",
  "updatedAt": "2018-06-28T09:00:24.886Z"
}